{
  "_format": "hh3-artifact-1",
  "contractName": "Voting",
  "sourceName": "contracts/Voting.sol",
  "abi": [
    {
      "inputs": [],
      "stateMutability": "nonpayable",
      "type": "constructor"
    },
    {
      "anonymous": false,
      "inputs": [
        {
          "indexed": true,
          "internalType": "uint256",
          "name": "id",
          "type": "uint256"
        },
        {
          "indexed": false,
          "internalType": "string",
          "name": "name",
          "type": "string"
        }
      ],
      "name": "CandidateAdded",
      "type": "event"
    },
    {
      "anonymous": false,
      "inputs": [
        {
          "indexed": true,
          "internalType": "address",
          "name": "voter",
          "type": "address"
        },
        {
          "indexed": true,
          "internalType": "uint256",
          "name": "candidateId",
          "type": "uint256"
        }
      ],
      "name": "Voted",
      "type": "event"
    },
    {
      "anonymous": false,
      "inputs": [
        {
          "indexed": false,
          "internalType": "bool",
          "name": "isOpen",
          "type": "bool"
        }
      ],
      "name": "VotingStatusChanged",
      "type": "event"
    },
    {
      "inputs": [
        {
          "internalType": "string",
          "name": "_name",
          "type": "string"
        }
      ],
      "name": "addCandidate",
      "outputs": [],
      "stateMutability": "nonpayable",
      "type": "function"
    },
    {
      "inputs": [
        {
          "internalType": "uint256",
          "name": "",
          "type": "uint256"
        }
      ],
      "name": "candidates",
      "outputs": [
        {
          "internalType": "uint256",
          "name": "id",
          "type": "uint256"
        },
        {
          "internalType": "string",
          "name": "name",
          "type": "string"
        },
        {
          "internalType": "uint256",
          "name": "voteCount",
          "type": "uint256"
        }
      ],
      "stateMutability": "view",
      "type": "function"
    },
    {
      "inputs": [],
      "name": "candidatesCount",
      "outputs": [
        {
          "internalType": "uint256",
          "name": "",
          "type": "uint256"
        }
      ],
      "stateMutability": "view",
      "type": "function"
    },
    {
      "inputs": [
        {
          "internalType": "address",
          "name": "_voter",
          "type": "address"
        }
      ],
      "name": "checkIfVoted",
      "outputs": [
        {
          "internalType": "bool",
          "name": "",
          "type": "bool"
        }
      ],
      "stateMutability": "view",
      "type": "function"
    },
    {
      "inputs": [],
      "name": "getAllCandidates",
      "outputs": [
        {
          "components": [
            {
              "internalType": "uint256",
              "name": "id",
              "type": "uint256"
            },
            {
              "internalType": "string",
              "name": "name",
              "type": "string"
            },
            {
              "internalType": "uint256",
              "name": "voteCount",
              "type": "uint256"
            }
          ],
          "internalType": "struct Voting.Candidate[]",
          "name": "",
          "type": "tuple[]"
        }
      ],
      "stateMutability": "view",
      "type": "function"
    },
    {
      "inputs": [],
      "name": "getTotalVotes",
      "outputs": [
        {
          "internalType": "uint256",
          "name": "",
          "type": "uint256"
        }
      ],
      "stateMutability": "view",
      "type": "function"
    },
    {
      "inputs": [
        {
          "internalType": "address",
          "name": "",
          "type": "address"
        }
      ],
      "name": "hasVoted",
      "outputs": [
        {
          "internalType": "bool",
          "name": "",
          "type": "bool"
        }
      ],
      "stateMutability": "view",
      "type": "function"
    },
    {
      "inputs": [],
      "name": "owner",
      "outputs": [
        {
          "internalType": "address",
          "name": "",
          "type": "address"
        }
      ],
      "stateMutability": "view",
      "type": "function"
    },
    {
      "inputs": [
        {
          "internalType": "bool",
          "name": "_status",
          "type": "bool"
        }
      ],
      "name": "setVotingStatus",
      "outputs": [],
      "stateMutability": "nonpayable",
      "type": "function"
    },
    {
      "inputs": [
        {
          "internalType": "uint256",
          "name": "_candidateId",
          "type": "uint256"
        }
      ],
      "name": "vote",
      "outputs": [],
      "stateMutability": "nonpayable",
      "type": "function"
    },
    {
      "inputs": [],
      "name": "votingOpen",
      "outputs": [
        {
          "internalType": "bool",
          "name": "",
          "type": "bool"
        }
      ],
      "stateMutability": "view",
      "type": "function"
    }
  ],
  "bytecode": "0x6080604052348015600e575f5ffd5b50600380546001600160a81b0319163360ff60a01b1916179055610b93806100355f395ff3fe608060405234801561000f575f5ffd5b50600436106100a6575f3560e01c80633477ee2e1161006e5780633477ee2e1461014d578063462e91ec1461016f5780637478c9fe146101825780638da5cb5b146101955780639a0e7d66146101c0578063a95824b4146101c8575f5ffd5b80630121b93f146100aa57806309eef43e146100bf5780631dfeef7a146100f65780632d35a8a2146101215780632e6997fe14610138575b5f5ffd5b6100bd6100b836600461075e565b6101dc565b005b6100e16100cd366004610775565b60016020525f908152604090205460ff1681565b60405190151581526020015b60405180910390f35b6100e1610104366004610775565b6001600160a01b03165f9081526001602052604090205460ff1690565b61012a60025481565b6040519081526020016100ed565b610140610364565b6040516100ed91906107d0565b61016061015b36600461075e565b6104e0565b6040516100ed93929190610855565b6100bd61017d366004610891565b610588565b6100bd610190366004610944565b61069f565b6003546101a8906001600160a01b031681565b6040516001600160a01b0390911681526020016100ed565b61012a610721565b6003546100e190600160a01b900460ff1681565b600354600160a01b900460ff166102495760405162461bcd60e51b815260206004820152602660248201527f566f74696e672062656c756d20646962756b612061746175207375646168206460448201526506974757475760d41b60648201526084015b60405180910390fd5b335f9081526001602052604090205460ff16156102a85760405162461bcd60e51b815260206004820152601b60248201527f416e6461207375646168206d656c616b756b616e20766f74696e6700000000006044820152606401610240565b5f811180156102b957506002548111155b6102fc5760405162461bcd60e51b815260206004820152601460248201527312d85b991a59185d081d1a59185ac81d985b1a5960621b6044820152606401610240565b335f908152600160208181526040808420805460ff1916909317909255838352829052812060020180549161033083610977565b9091555050604051819033907f4d99b957a2bc29a30ebd96a7be8e68fe50a3c701db28a91436490b7d53870ca4905f90a350565b60605f60025467ffffffffffffffff8111156103825761038261087d565b6040519080825280602002602001820160405280156103d557816020015b6103c260405180606001604052805f8152602001606081526020015f81525090565b8152602001906001900390816103a05790505b50905060015b60025481116104da575f81815260208181526040918290208251606081019093528054835260018101805491928401916104149061098f565b80601f01602080910402602001604051908101604052809291908181526020018280546104409061098f565b801561048b5780601f106104625761010080835404028352916020019161048b565b820191905f5260205f20905b81548152906001019060200180831161046e57829003601f168201915b50505050508152602001600282015481525050826001836104ac91906109c1565b815181106104bc576104bc6109da565b602002602001018190525080806104d290610977565b9150506103db565b50919050565b5f60208190529081526040902080546001820180549192916105019061098f565b80601f016020809104026020016040519081016040528092919081815260200182805461052d9061098f565b80156105785780601f1061054f57610100808354040283529160200191610578565b820191905f5260205f20905b81548152906001019060200180831161055b57829003601f168201915b5050505050908060020154905083565b6003546001600160a01b031633146105b25760405162461bcd60e51b8152600401610240906109ee565b5f8151116106025760405162461bcd60e51b815260206004820152601760248201527f4e616d6120746964616b20626f6c6568206b6f736f6e670000000000000000006044820152606401610240565b60028054905f61061183610977565b90915550506040805160608101825260025480825260208083018581525f8486018190529283529082905292902081518155915190919060018201906106579082610a7d565b506040918201516002918201555490517fe83b2a43e7e82d975c8a0a6d2f045153c869e111136a34d1889ab7b598e396a390610694908490610b38565b60405180910390a250565b6003546001600160a01b031633146106c95760405162461bcd60e51b8152600401610240906109ee565b60038054821515600160a01b0260ff60a01b199091161790556040517f9069a1a16ace751e8690f383e12f87b01e8488ba387e626810bd113fef0417f99061071690831515815260200190565b60405180910390a150565b5f8060015b60025481116104da575f8181526020819052604090206002015461074a9083610b4a565b91508061075681610977565b915050610726565b5f6020828403121561076e575f5ffd5b5035919050565b5f60208284031215610785575f5ffd5b81356001600160a01b038116811461079b575f5ffd5b9392505050565b5f81518084528060208401602086015e5f602082860101526020601f19601f83011685010191505092915050565b5f602082016020835280845180835260408501915060408160051b8601019250602086015f5b8281101561084957603f1987860301845281518051865260208101516060602088015261082660608801826107a2565b6040928301519790920196909652945060209384019391909101906001016107f6565b50929695505050505050565b838152606060208201525f61086d60608301856107a2565b9050826040830152949350505050565b634e487b7160e01b5f52604160045260245ffd5b5f602082840312156108a1575f5ffd5b813567ffffffffffffffff8111156108b7575f5ffd5b8201601f810184136108c7575f5ffd5b803567ffffffffffffffff8111156108e1576108e161087d565b604051601f8201601f19908116603f0116810167ffffffffffffffff811182821017156109105761091061087d565b604052818152828201602001861015610927575f5ffd5b816020840160208301375f91810160200191909152949350505050565b5f60208284031215610954575f5ffd5b8135801515811461079b575f5ffd5b634e487b7160e01b5f52601160045260245ffd5b5f6001820161098857610988610963565b5060010190565b600181811c908216806109a357607f821691505b6020821081036104da57634e487b7160e01b5f52602260045260245ffd5b818103818111156109d4576109d4610963565b92915050565b634e487b7160e01b5f52603260045260245ffd5b60208082526023908201527f48616e7961206f776e65722079616e672062697361206d656c616b756b616e20604082015262696e6960e81b606082015260800190565b601f821115610a7857805f5260205f20601f840160051c81016020851015610a565750805b601f840160051c820191505b81811015610a75575f8155600101610a62565b50505b505050565b815167ffffffffffffffff811115610a9757610a9761087d565b610aab81610aa5845461098f565b84610a31565b6020601f821160018114610add575f8315610ac65750848201515b5f19600385901b1c1916600184901b178455610a75565b5f84815260208120601f198516915b82811015610b0c5787850151825560209485019460019092019101610aec565b5084821015610b2957868401515f19600387901b60f8161c191681555b50505050600190811b01905550565b602081525f61079b60208301846107a2565b808201808211156109d4576109d461096356fea2646970667358221220897d7deea242f6b77df25880e4504c1ffb0147f18522fadb87473c7f748908ec64736f6c634300081c0033",
  "linkReferences": {},
  "deployedLinkReferences": {},
  "immutableReferences": {},
  "inputSourceName": "project/contracts/Voting.sol",
  "buildInfoId": "solc-0_8_28-c814873b96b012b858d3e2dc58d0c0848625a438"
}